:100000000C9432050C94030B0C94CD0A0C945A05F5
:100010000C945A050C945A050C945A050C94500BE8
:100020000C945A050C945A050C945A050C945A05D4
:100030000C945A050C945A050C945A050C945A05C4
:100040000C944C290C945A050C94ED270C94C7275A
:100050000C945A050C9400060C945A050C945A05FD
:100060000C945A050C945A0548061E0628062F06BD
:100070003206350638063B063E064A064C065A0648
:1000800068067606840692065A1C721C3B213B21A8
:100090003B21BC1C6E1D711D891DA31DD01D231E7F
:1000A000861EF51E6A1F7D1F1D211D211D211D217C
:1000B000AC1F592065219E2475219E2483210A228C
:1000C0009E249122B622FC2238233D23422354232E
:1000D00073239223036EDB363D9A9999993DABAA1F
:1000E000AA2A3E000000803F072C7AA5BA6CC59072
:1000F000DA3B9365FC8BBC53F810FD3C5692834D64
:10010000BD879D3AB63DCBC9BF5BBE73DA0FC93F11
:1001100005A84CCDB2D44EB93836A9020C50B991CD
:100120008688083CA6AAAA2ABE000000803F7469FF
:100130006D6520726F626F74506F7320726F626FA3
:1001400074416E676C6520667764506F732020661B
:100150007764537065656420726F74706F7320727A
:100160006F74537065656420667764566F6C747342
:1001700020726F74566F6C74730074696D652070B3
:100180006F7320616E676C65206C656674207269A0
:100190006768742066726F6E74206572726F722069
:1001A00061646A7573746D656E7400536574746907
:1001B0006E6773207361766564006B000000000059
:1001C0000040CDCC8C3F666606409A99993F00006E
:1001D000803E0000000000001E42C7012C01C70144
:1001E000110E613EABAAAA3E110E613E3C003200E8
:1001F0003C0064006400640072696768745F6E6F3D
:100200006D696E616C0066726F6E745F6E6F6D69A2
:100210006E616C006C6566745F6E6F6D696E616CAB
:100220000072696768745F7468726573686F6C6484
:100230000066726F6E745F7468726573686F6C6469
:10024000006C6566745F7468726573686F6C6400D7
:1002500072696768745F61646A7573740066726F4F
:100260006E745F61646A757374006C6566745F6157
:10027000646A7573740072696768745F63616C693E
:1002800062726174696F6E0066726F6E745F636133
:100290006C6962726174696F6E006C6566745F632D
:1002A000616C6962726174696F6E006D6F75736500
:1002B000526164697573007374656572696E675F16
:1002C0004B44007374656572696E675F4B500072D2
:1002D0006F744B4400726F744B50006677644B44EC
:1002E000006677644B5000666C61677300726576D8
:1002F0006973696F6E0052445900436C656172699D
:100300006E6720746865204D617A6500202020208A
:1003100020203135203D20666F6C6C6F7720746F24
:1003200020676F616C002020202020203134203D88
:100330002073656172636820746F20676F616C2041
:10034000002020202020203133203D20746573744C
:10035000206261636B2077616C6C207374617274CE
:1003600020002020202020203132203D2074657381
:1003700074203930207269676874207370696E0068
:100380002020202020203131203D207465737420EE
:100390003930206C656674207370696E00202020EF
:1003A0002020203130203D20746573742033363096
:1003B000207370696E207475726E002020202020DA
:1003C000202039203D206D6F7665206F6E6520639B
:1003D000656C6C20002020202020202038203D202B
:1003E0006D6F766520746F2073656E73696E67201C
:1003F000706F696E74002020202020202037203D5F
:10040000206D6F766520666F72776172642035307B
:10041000306D6D002020202020202036203D202D12
:1004200020002020202020202035203D20746573CE
:10043000742053533930454C0020202020202020A8
:1004400034203D2074657374205353393045520075
:100450002020202020202033203D202D200020207F
:10046000202020202032203D207265706F72742081
:1004700073746174757320002020202020202031A7
:10048000203D206C6F672066726F6E742073656EFE
:10049000736F7220002020202020202030203D205B
:1004A0002D2D2D0055206E203A2052756E2075732B
:1004B00065722066756E6374696F6E206E00202011
:1004C000202020203231203D2073656E736F722012
:1004D0007370696E2063616C6962726174696F6EBA
:1004E000002020202020203230203D2074657374AD
:1004F000206564676520646574656374696F6E0068
:100500002020202020203135203D202D2D2D0020A1
:1005100020202020203134203D2074657374207306
:1005200074656572696E67206C6F636B00202020B4
:100530002020203133203D20737072696E74207743
:1005400069746820737465656572696E6700202040
:10055000202020203132203D2073746F7020617480
:100560002064697374616E63650020202020202060
:100570003131203D20736D6F6F74682039302074E5
:1005800075726E002020202020203130203D207305
:100590007072696E7420616E642072657475726E1B
:1005A000002020202020202039203D20666F7277F7
:1005B000617264206D6F766500202020202020204D
:1005C00038203D207370696E207475726E2033364A
:1005D00030002020202020202037203D207465730B
:1005E0007420666F727761726420636F6E74726FCD
:1005F0006C6C65722074756E696E677300202020C4
:100600002020202036203D207465737420726F7482
:100610006174696F6E20636F6E74726F6C6C65725B
:100620002074756E696E67730020202020202020C2
:1006300035203D2063616C69627261746520656E6E
:10064000636F6465727300202020202020203420F6
:100650003D2072657365742073657474696E677389
:1006600020746F2064656661756C747300202020AF
:100670002020202033203D2073617665207365742F
:1006800074696E677320746F20454550524F4D005A
:100690002020202020202032203D206C6F6164200B
:1006A00073657474696E67732066726F6D2045455B
:1006B00050524F4D002020202020202031203D206E
:1006C0005265706F72742073656E736F7220636110
:1006D0006C6962726174696F6E0020202020202096
:1006E0002030203D202D2D2D0054206E203A205208
:1006F000756E2054657374206E00532020203A20BC
:1007000073686F772073656E736F722072656164B2
:10071000696E677300522020203A20646973706C00
:100720006179206D617A65207769746820646972E7
:10073000656374696F6E7300582020203A207265DB
:10074000736574206D617A6500572020203A20641B
:100750006973706C6179206D617A652077616C6C6A
:100760007300242020203A2073657474696E6773C7
:1007700000ED02E702E102DB02D502CF02C302B7BD
:1007800002AB029A02880276026A025D02500241BE
:10079000023102210214020602F801696E7400752A
:1007A000696E7431365F740075696E7433325F74CC
:1007B00000626F6F6C00666C6F6174003B20202FCD
:1007C0002F2024005265736574204D617A65000EF8
:1007D0000808080808080808080808080808090C94
:1007E0000000000000000000000000000000010404
:1007F00000000000000000000000000000000104F4
:1008000000000000000000000000000000000104E3
:1008100000000000000000000000000000000104D3
:1008200000000000000000000000000000000104C3
:1008300000000000000000000000000000000104B3
:1008400000000000000000000000000000000104A3
:100850000000000000000000000000000000010493
:100860000000000000000000000000000000010483
:100870000000000000000000000000000000010473
:100880000000000000000000000000000000010463
:100890000000000000000000000000000000010453
:1008A0000000000000000000000000000000010443
:1008B0000000000000000000000000000000010631
:1008C0000202020202020202020202020202036C9D
:1008D000656674206C6566745F7265662066726F0B
:1008E0006E742066726F6E745F72656620726967DF
:1008F00068742072696768745F726566006C65660B
:100900007420726967687420706F736974696F6EA0
:1009100020616E676C650020726F74203A200020A1
:10092000667764203A200020506F736974696F6E97
:1009300020286D6D293A2000202020416E676C65CB
:100940002028646567293A2000202052696768746E
:100950003A20004C6566743A200045646765207053
:100960006F736974696F6E733A004F4B0041727216
:1009700069766564212020004F66662077652067D0
:100980006F2E2E2E004F4B0053657474696E677383
:1009900020726573746F72656420746F20206465C3
:1009A0006661756C74730053657474696E67732047
:1009B0006C6F616465640020756E6B6E6F776E207E
:1009C0007479706500010204040404040404010144
:1009D000010404040101010101013C013E01400147
:1009E000440148014C015001540158015C015E0171
:1009F0006001620166016A016E0170017201740199
:100A0000760178014F666620776520676F2E2E2E5F
:100A10000000000000240027002A0000000000253C
:100A20000028002B0004040404040404040202024D
:100A3000020202030303030303010204081020401F
:100A400080010204081020010204081020000000A8
:100A5000080002010000030407000000000000007D
:100A60000000952E11241FBECFEFD8E0DEBFCDBF12
:100A700024E0A8EFB1E001C01D92AB34B207E1F76A
:100A800011E0A0E0B1E0E6E6F8E602C005900D92C4
:100A9000A83FB107D9F715E0C2E3D5E004C021971C
:100AA000FE010E94D432C133D107C9F70E949629B2
:100AB0000C9431340C9400008091780020917900DE
:100AC00090E0922B08958E3008F08E5087708064ED
:100AD00080937C0080917A00806480937A000895EE
:100AE000E82FA82FB0E0A55BBB4F8C91613051F08F
:100AF00028F0623059F0633069F014C080FD12C0F4
:100B0000EF5F0BC081FD0EC0E05F07C082FD0AC031
:100B1000E15003C083FD06C0E051F0E0EC58FD4F0A
:100B2000808108958FEF089581302FEF92077CF038
:100B30008F3F910519F014F08FEF90E0662777272B
:100B4000681B790B77FF05C0289ABC0103C06FEFC3
:100B500070E028988AE00C94A72881302FEF920744
:100B600054F0BC018F3F910519F014F06FEF70E065
:100B700077FF08C002C061E07FEF5F9A71956195D1
:100B8000710901C05F9889E00C94A728EF92FF9249
:100B90000F931F93CF93DF931F92CDB7DEB78BEAEE
:100BA00091E00E9440170CE311E0E12CF12CF801D8
:100BB00061918F01C70169830E943730698168178D
:100BC00019F0C7010E943F30FFEFEF1AFF0A8EE3D2
:100BD000E816F10461F70F90DF91CF911F910F910B
:100BE000FF90EF9008954EE350E06AEB71E08CE3E4
:100BF00091E00E94CC2E0E94C60580E090E008950E
:100C00001F920F920FB60F9211242F933F934F9381
:100C10005F936F937F938F939F93AF93BF93EF9364
:100C2000FF93E09144028E2F90E08031910508F00F
:100C30008BC0FC01EC5CFF4F0C94D4320E945C052D
:100C400090930F0280930E0284E10E9463057CC0A2
:100C50000E945C059093FD018093FC011BC00E94E3
:100C60005C0522C00E945C052DC00E945C0538C056
:100C70000E945C0543C00E945C054EC00E945C055A
:100C800090931B0280931A0280913B0481112C9A4D
:100C900085E1DBCF8FE0D9CF0E945C052091100267
:100CA00030911102821B930B9093110280931002DA
:100CB0008EE0CBCF0E945C0520911202309113028E
:100CC000821B930B909313028093120280E1BDCF9D
:100CD0000E945C052091140230911502821B930B37
:100CE000909315028093140281E1AFCF0E945C05BE
:100CF0002091160230911702821B930B90931702DA
:100D00008093160282E1A1CF0E945C052091180217
:100D100030911902821B930B909319028093180251
:100D200083E193CF0E945C0520911A0230911B024F
:100D3000821B930B90931B0280931A022C98809134
:100D40007A00877F80937A00809144028F5F80933E
:100D50004402FF91EF91BF91AF919F918F917F914D
:100D60006F915F914F913F912F910F900FBE0F9018
:100D70001F9018958091280490912904A0912A042D
:100D8000B0912B0480931C0290931D02A0931E022D
:100D9000B0931F021092240410922504109226048E
:100DA0001092270481E0809311040895CF93DF937C
:100DB000CDB7DEB7A2970FB6F894DEBF0FBECDBF9A
:100DC00082E2E0E8F1E0DE01119601900D928A9551
:100DD000E1F78091FC019091FD0181329340FCF498
:100DE000FE01319620E030E06091FC017091FD0140
:100DF000A191B191A9014F5F5F4F808191818A0FCD
:100E00009B1F97FD0196959587958617970754F038
:100E10009A014031510541F78FEF9FEF04C080E107
:100E200090E001C0C901A2960FB6F894DEBF0FBED4
:100E3000CDBFDF91CF9108951F93CF93DF93182FEC
:100E4000C0E1D0E08FE60E94E115E12FF0E0E55B24
:100E5000FB4F808180FF03C080EC91E002C08BECEF
:100E600091E00E948A152197105F209759F78FE62D
:100E7000DF91CF911F910C94FC250F931F93CF937B
:100E8000DF938C01EB0197FD02C0219701C02297EF
:100E9000C8012AE030E0B9010E949E32CB010097E0
:100EA00011F02197F8CF1C161D0634F480E290E073
:100EB0000E9484172197F7CFC801DF91CF911F912E
:100EC0000F910C94F116CF93C82F803118F480E362
:100ED0000E94E1156C2F70E080E090E040E1CF913E
:100EE0000C94A0152F923F924F925F926F927F9237
:100EF0008F929F92AF92BF92CF92DF92EF92FF922A
:100F00000F931F93CF93DF938FB7F89460902204D1
:100F100070902304A0906F02B09070024090200463
:100F2000509021048090300490903104C0902C04A3
:100F3000D0902D0420902E0430902F04E090730266
:100F4000F12C0091720210E0C0917102D0E08FBFCD
:100F50008AE00E94E115C3010E94F11688E20E9416
:100F6000E115C4010E94F11689E20E94E115C70152
:100F70000E94F116EF2811F060E001C061E08DE001
:100F80000E941F2880E20E94E115C5010E94F1160F
:100F900088E20E94E115C6010E94F11689E20E94D2
:100FA000E115C8010E94F116012B11F060E001C0AB
:100FB00061E086E00E941F2880E20E94E115C201E4
:100FC0000E94F11688E20E94E115C1010E94F1160B
:100FD00089E20E94E115CE010E94F116CD2B11F09D
:100FE00060E001C061E08BE00E941F2880E20E9467
:100FF000E115609128047091290480912A04909150
:101000002B0442E050E00E94EF1680E2DF91CF9186
:101010001F910F91FF90EF90DF90CF90BF90AF9016
:101020009F908F907F906F905F904F903F902F9008
:101030000C94E1158AE791E00E9440170E94402934
:101040006093320470933304809334049093350496
:101050006093360470933704809338049093390476
:1010600008958EE291E00E9440170E94402960930B
:101070003204709333048093340490933504609366
:10108000360470933704809338049093390408959C
:101090002FB7F89480916F02909170022FBF08953E
:1010A00010924002109241021092420210924302AA
:1010B00060913C0270913D0280913E0290913F020E
:1010C00020E030E0A9010E94762F0E946131CB011F
:1010D0000E94AD05109238021092390210923A0225
:1010E00010923B0260913C0270913D0280913E0261
:1010F00090913F0220E030E0A9010E94762F0E94EB
:101100006131CB010C9494052FB7F894FC016181F7
:101110007281838194812FBF08952FB7F894FC01C9
:1011200065817681878190852FBF08952F923F92A8
:101130004F925F926F927F928F929F92AF92BF92E7
:10114000CF92DF92EF92FF920F931F93CF93DF9393
:1011500000D000D0CDB7DEB71C012A013B010983C6
:101160001A832B833C8320E030E0A901C301B20144
:101170000E94102F87FD02C011E001C01FEFF10196
:10118000118720E030E0A901C301B2010E94102FB5
:1011900087FF04C077FA709477F8709420E030E00D
:1011A00040E85FE3C301B2010E94102F87FF02C035
:1011B00083E060C029813A814B815C81C701B6011F
:1011C0000E94F231181624F4C980DA80EB80FC808A
:1011D000F1011582168217821086428E538E648E1C
:1011E000758E612F110F770B880B990B0E94172FAB
:1011F0002B013C0129813A814B815C815F770E9400
:10120000762FF101628B738B848B958BA7019601EE
:101210005F77C301B2010E94762FF101668B778B55
:10122000808F918FE894B7F882869386A486B586DE
:1012300020E030E040E85FE3C501B4010E94F231F4
:1012400087FD0EC0A501940160E070E080E89FE397
:101250000E94EF30F10166877787808B918B09C000
:1012600080E090E0A0E8BFE3F10186879787A08B3C
:10127000B18B81E0F10180830F900F900F900F9060
:10128000DF91CF911F910F91FF90EF90DF90CF9062
:10129000BF90AF909F908F907F906F905F904F9096
:1012A0003F902F900895FC018FB7F8941582168215
:1012B000178210861182128213821482128A138A74
:1012C000148A158A10828FBF08950E94D60621E0E5
:1012D000409709F020E0822F08950E946509882335
:1012E00039F06AE070E080E090E00E940629F5CFD6
:1012F0000895CF92DF92EF92FF920F931F93CF93B7
:10130000DF93E82EC62FE82FF0E0EC58FD4F008168
:1013100010E00E94700590E08017910718F48C018E
:10132000FC2E01C0F12CD0E06E018FEFC81AD80A54
:1013300083E0C822DD246C2D8E2D0E94700590E084
:101340008017910710F48C01FC2C6E0183E0C80E0D
:10135000D11C83E0C822DD246C2D8E2D0E947005E7
:1013600090E08017910710F48C01FC2C2296C3703A
:10137000DD276C2F8E2D0E94700590E0801791075D
:1013800028F00F3F110519F4F12C01C0FC2E8F2D10
:10139000DF91CF911F910F91FF90EF90DF90CF9051
:1013A0000895613049F030F0623041F0633041F42B
:1013B000805105C08F5F03C0805F01C081500895D8
:1013C0008FEF90E008955F926F927F928F929F923D
:1013D000AF92BF92CF92DF92EF92FF920F931F9343
:1013E000CF93DF93C82FE4E7F2E08FEF819323E000
:1013F000E437F207D9F781E490E00E94EE328C01E5
:10140000EC2FF0E0EC58FD4F1082FC01C083A12CC2
:10141000B12CCC24C394D12CEE24E394F12CF8010C
:10142000EA0DFB1D5080C50101968134910524F021
:10143000FFE3AF1AB10801C05C0121E0E21AF10834
:10144000252D30E0F901EC58FD4FC081D0E0219608
:10145000F901E55BFB4F6080712C812C912CC3015D
:10146000082C02C0959587950A94E2F780FD1FC06D
:10147000682D852D0E94D109E82FF0E0EC58FD4F32
:10148000208130E0C217D30790F4C083F801EC0D3F
:10149000FD1D8083C6010196EFEFEE1AFE0A81342E
:1014A000910524F0FFE3CF1AD10801C06C012FEFA2
:1014B000821A920A84E08816910489F6E114F104F4
:1014C00009F0ADCF0115110591F0C801DF91CF9161
:1014D0001F910F91FF90EF90DF90CF90BF90AF9052
:1014E0009F908F907F906F905F900C948333DF91EB
:1014F000CF911F910F91FF90EF90DF90CF90BF9011
:10150000AF909F908F907F906F905F900895CF9352
:10151000DF93C82FD62F0E94D10990E0D13001F17E
:1015200090F0D23051F1D330A9F5EC2FF0E0E55B2B
:10153000FB4F208128602083FC01E55BFB4F80810D
:101540008260808327C0EC2FF0E0E55BFB4F2081B9
:1015500021602083FC01E55BFB4F9081946019C002
:10156000EC2FF0E0E55BFB4F208122602083FC0143
:10157000E55BFB4F908198600CC0EC2FF0E0E55BE1
:10158000FB4F208124602083FC01E55BFB4F9081B1
:1015900091609083DF91CF9108951F920F920FB6C3
:1015A0000F9211242F933F934F935F938F939F93A9
:1015B00039B135FB332730F929B123FB222720F934
:1015C00023278091FB01832790E04091FA01422775
:1015D000841B910940914A0250914B02840F951F40
:1015E00090934B0280934A022093FB013093FA01BF
:1015F0009F918F915F914F913F912F910F900FBECF
:101600000F901F9018951F920F920FB60F921124F2
:101610002F933F934F935F938F939F9339B132955D
:10162000317029B122FB222720F923278091F9016B
:10163000822790E04091F8014327841B9109409153
:101640004C0250914D02840F951F90934D02809350
:101650004C022093F8013093F9019F918F915F9193
:101660004F913F912F910F900FBE0F901F901895A3
:101670002FB7F8946091FE017091FF0180910002F4
:10168000909101022FBF08952FB7F8946091020244
:101690007091030280910402909105022FBF08957A
:1016A00078941F920F920FB60F9211244F925F926F
:1016B0006F927F928F929F92AF92BF92CF92DF9262
:1016C000EF92FF920F931F932F933F934F935F934C
:1016D0006F937F938F939F93AF93BF93EF93FF93FA
:1016E000CF93DF93CDB7DEB76C97F894DEBF7894D5
:1016F000CDBF8FB7F89420914C0230914D023093BA
:1017000009022093080220914A0230914B02309343
:1017100007022093060210924D0210924C02109282
:101720004B0210924A028FBF8091080290910902E9
:10173000409118045091190460911A0470911B048F
:10174000092E000CAA0BBB0B840F951FA61FB71FF9
:101750008093180490931904A0931A04B0931B0467
:10176000809106029091070240911C0450911D0443
:1017700060911E0470911F04092E000CAA0BBB0B74
:10178000840F951FA61FB71F80931C0490931D0400
:10179000A0931E04B0931F04609108027091090287
:1017A000072E000C880B990B0E94172F21EB35E3B5
:1017B00040E25CE30E94762F6B017C01809106027F
:1017C00090910702BC01990F880B990B0E94172F6B
:1017D00027E433E041E25CE30E94762F2B013C01D9
:1017E000A70196010E94683020E030E040E05FE30E
:1017F0000E94762F4B015C016093200270932102BE
:101800008093220290932302A7019601C301B201A3
:101810000E94673026ED3AEA49E35FE30E94762FA3
:101820006B017C0160932C0270932D0280932E0239
:1018300090932F0260910202709103028091040242
:1018400090910502A50194010E9468306093020204
:101850007093030280930402909305026091FE014D
:101860007091FF018091000290910102A701960101
:101870000E9468306093FE017093FF018093000224
:101880009093010260910E0270910F02072E000CDE
:10189000880B990B0E94172F2AE038E240E25CE3A4
:1018A0000E94762F60930A0270930B0280930C02C1
:1018B00090930D0220910A0230910B0240910C028C
:1018C00050910D0260E070E08FE793E40E94EF30EA
:1018D00060933C0270933D0280933E0290933F02DE
:1018E00080911E01882309F430C12FE632E143E0E4
:1018F0005BE3609128017091290180912A01909108
:101900002B010E94762F4B015C0100912301109165
:101910002401209125013091260180913801909178
:101920003901A0913A01B0913B01BC01CD019F77F3
:10193000A90198015F770E9467306B017C0180915B
:101940001E01813009F071C060911F01709120016A
:10195000809121019091220120911F01309120015D
:101960004091210150912201409034015090350165
:1019700060903601709037010E94762F69837A83D8
:101980008B839C83A3019201C301B2010E94762F35
:101990009B01AC0169817A818B819C810E946730B7
:1019A0009F7720E030E040E05FE30E94762F2091B7
:1019B0002C0130912D0140912E0150912F010E9458
:1019C000762F9B01AC01C701B6010E94102F87FF43
:1019D0002CC082E080931E0120E030E0A901C30109
:1019E000B2010E94102F811118C060912701062EAC
:1019F000000C770B880B990B0E94172F20E030E02A
:101A000040EA50E40E94762F6093300170933101D8
:101A1000809332019093330108C04092300150927C
:101A20003101609232017092330160911F01709117
:101A3000200180912101909122014090300150902D
:101A400031016090320170903301A30192010E9434
:101A5000102F87FF2AC060911F0170912001809193
:101A6000210190912201A50194010E9468306093A8
:101A70001F017093200180932101909322016091B6
:101A80001F01709120018091210190912201A301F9
:101A900092010E94F231181644F440921F015092B4
:101AA0002001609221017092220160911F017091CA
:101AB00020018091210190912201A30192010E94B5
:101AC000F231181654F560911F0170912001809138
:101AD000210190912201A50194010E946730609339
:101AE0001F01709320018093210190932201609146
:101AF0001F01709120018091210190912201A30189
:101B000092010E94102F87FF08C040921F0150923F
:101B1000200160922101709222010E94440B609387
:101B200023017093240180932501909326018091D5
:101B30001E01833051F020E030E040E05EE3C70159
:101B4000B6010E94102F87FDE6C480910001882312
:101B500009F430C12FE632E143E05BE360910A0112
:101B600070910B0180910C0190910D010E94762FD4
:101B70004B015C01009105011091060120910701C4
:101B80003091080180911A0190911B01A0911C01D4
:101B9000B0911D01BC01CD019F77A90198015F772C
:101BA0000E9467306B017C0180910001813009F057
:101BB00071C06091010170910201809103019091C7
:101BC00004012091010130910201409103015091E3
:101BD0000401409016015090170160901801709018
:101BE00019010E94762F69837A838B839C83A301DA
:101BF0009201C301B2010E94762F9B01AC01698161
:101C00007A818B819C810E9467309F7720E030E051
:101C100040E05FE30E94762F20910E0130910F018A
:101C200040911001509111010E94762F9B01AC014F
:101C3000C701B6010E94102F87FF2CC082E080935D
:101C4000000120E030E0A901C301B2010E94102F81
:101C5000811118C060910901062E000C770B880BCA
:101C6000990B0E94172F20E030E040EA50E40E94D8
:101C7000762F609312017093130180931401909357
:101C8000150108C040921201509213016092140194
:101C90007092150160910101709102018091030120
:101CA0009091040140901201509013016090140132
:101CB00070901501A30192010E94102F87FF2AC086
:101CC00060910101709102018091030190910401E2
:101CD000A50194010E946830609301017093020194
:101CE00080930301909304016091010170910201BE
:101CF0008091030190910401A30192010E94F231AD
:101D0000181644F4409201015092020160920301BE
:101D100070920401609101017091020180910301B0
:101D200090910401A30192010E94F231181654F51A
:101D30006091010170910201809103019091040171
:101D4000A50194010E946730609301017093020124
:101D5000809303019093040160910101709102014D
:101D60008091030190910401A30192010E94102F20
:101D700087FF08C040920101509202016092030166
:101D8000709204010E94380B609305017093060164
:101D9000809307019093080180910001833051F0F6
:101DA00020E030E040E05EE3C701B6010E94102F62
:101DB00087FDD6C380913B04882309F4F7C0809146
:101DC00010029091110297FD05C080911002909130
:101DD000110202C080E090E0909311028093100203
:101DE000809112029091130297FD05C0809112021A
:101DF0009091130202C080E090E0909313028093D0
:101E00001202809114029091150297FD05C08091F5
:101E100014029091150202C080E090E090931502A8
:101E200080931402809110029091110290932F04DC
:101E300080932E04809112029091130290932D04AE
:101E400080932C0480911402909115029093310498
:101E50008093300460912E0470912F04072E000CA3
:101E6000880B990B0E94172F20916A0130916B010A
:101E700040916C0150916D010E94762F0E9461315A
:101E8000709321046093200460912C0470912D04C0
:101E9000072E000C880B990B0E94172F20916601CA
:101EA0003091670140916801509169010E94762F3D
:101EB0000E9461317093700260936F0260913004F0
:101EC00070913104072E000C880B990B0E94172F7C
:101ED000209162013091630140916401509165014C
:101EE0000E94762F0E946131709323046093220434
:101EF000409122045091230481E020916E013091A1
:101F00006F01241735070CF080E080937302409135
:101F100020045091210481E02091720130917301DD
:101F2000241735070CF080E08093710240916F0216
:101F30005091700281E0209170013091710124175D
:101F400035070CF080E0809372028091200490911C
:101F500021046091780170917901681B790B072E3B
:101F6000000C880B990B0E94172F6B017C012091AC
:101F70002204309123048091740190917501821B99
:101F8000930BBC01990F880B990B0E94172F20917E
:101F90007302222309F409C320917102222309F458
:101FA00004C3A70196010E94673007C340E050E0D8
:101FB000BA010EC030E020E080E090E040916F0276
:101FC00050917002433351058CF7432F522FBC01BF
:101FD000409328045093290460932A0470932B049F
:101FE0008090280490902904A0902A04B0902B049B
:101FF0002091500130915101409152015091530173
:10200000C501B4010E94762F6B017C0120911C0256
:1020100030911D0240911E0250911F02C501B40172
:102020000E94673020915401309155014091560132
:10203000509157010E94762F9B01AC01C701B60158
:102040000E9468302FE632E143E05BE30E94762F86
:102050006B017C0120E030E040E251EC0E94102F47
:1020600087FD11C020E030E040E251E4C701B60135
:102070000E94F23118166CF4C12CD12C40E2E42EEF
:1020800041E4F42E06C0C12CD12C50E2E52E51ECD7
:10209000F52E80921C0290921D02A0921E02B09218
:1020A0001F02C0922404D0922504E0922604F092EC
:1020B0002704C0902404D0902504E0902604F090DA
:1020C00027042FB7F89460911F017091200180912F
:1020D0002101909122012FBF2FB7F8948090200208
:1020E00090902102A0902202B09023022FBF2FE6F1
:1020F00032E143E05BE30E94762FA50194010E9448
:102100006730209128023091290240912A02509193
:102110002B020E9468304B015C016093280270938F
:10212000290280932A0290932B028091240290919D
:102130002502A0912602B09127028D879E87AF8746
:10214000B88B8092240290922502A0922602B0922F
:1021500027028091400190914101A0914201B091EC
:102160004301898B9A8BAB8BBC8B809144019091FE
:102170004501A0914601B09147018D8B9E8BAF8B9D
:10218000B88F2FB7F894609101017091020180918E
:102190000301909104012FBF2FB7F89440902C02B7
:1021A00050902D0260902E0270902F022FBF2FE6CC
:1021B00032E143E05BE30E94762FA30192010E948B
:1021C00067302091340230913502409136025091AF
:1021D00037020E9468306093340270933502809316
:1021E00036029093370220911104222361F0A70157
:1021F00096010E9468306093340270933502809398
:10220000360290933702409034025090350260902D
:102210003602709037028091300290913102A09185
:102220003202B09133028D839E83AF83B887409290
:102230003002509231026092320270923302C090AA
:102240004801D0904901E0904A01F0904B01809103
:102250004C0190914D01A0914E01B0914F01898F99
:102260009A8FAB8FBC8F8EE191E00E9484086983C6
:102270007A838B839C8380E091E00E948408698745
:102280007A878B879C8780913A04882309F403C15D
:10229000A3019201C701B6010E94762F6B017C0158
:1022A0002D813E814F815885C301B2010E94673064
:1022B0009B01AC01698D7A8D8B8D9C8D0E94762F50
:1022C0009B01AC01C701B6010E9468306D837E831B
:1022D0008F839887A501940169897A898B899C8964
:1022E0000E94762F6B017C012D853E854F85588994
:1022F000C501B4010E9467309B01AC016D897E89E4
:102300008F89988D0E94762F9B01AC01C701B60181
:102310000E94683020E030E0A9010E9468302B0163
:102320003C0129ED3CE740E35FE369857A858B85D5
:102330009C850E94762F4B015C012D813E814F814F
:102340005885C301B2010E9468306B017C01A50170
:10235000940169817A818B819C810E94683021EA95
:102360003EE04AE65BE30E94762F9B01AC01C70189
:10237000B6010E9468306B017C0120E030E040E053
:1023800051EC0E94102F87FD10C020E030E040E0AB
:1023900051E4C701B6010E94F23118165CF4C12C59
:1023A000D12CE12C21E4F22E05C0C12CD12CE12C42
:1023B00031ECF32E2D813E814F815885C301B2014E
:1023C0000E9467302B013C01A501940169817A814B
:1023D0008B819C810E94673021EA3EE04AE65BE304
:1023E0000E94762F9B01AC01C301B2010E946830AC
:1023F0004B015C01C0923802D0923902E0923A025D
:10240000F0923B0220913C0230913D0240913E020D
:1024100050913F02C701B6010E94762F0E946131A0
:10242000CB010E94940520E030E040E051ECC50172
:10243000B4010E94102F87FD10C020E030E040E082
:1024400051E4C501B4010E94F23118165CF4812CEC
:10245000912CA12C81E4B82E05C0812C912CA12CAB
:1024600091ECB92E8092400290924102A0924202D9
:10247000B092430220913C0230913D0240913E02D5
:1024800050913F02C501B4010E94762F0E94613134
:10249000CB010E94AD051092440280917A008860C1
:1024A00080937A0080E00E946305809148029091B9
:1024B0004902893EA3E09A0734F4019690934902B9
:1024C000809348020BC0109249021092480260E0CB
:1024D00086E00E941F2881E0809347028091470296
:1024E000882309F47BC080914502909146028B308D
:1024F000910534F4019690934602809345026EC094
:1025000010924602109245021092470261E086E066
:102510000E941F2863C083E080931E0160E086E074
:102520000E941F2860912301709124018091250150
:102530009091260142E00E941B160E949C158091FA
:10254000340190913501A0913601B091370180930B
:10255000300190933101A0933201B0933301F5CA59
:1025600083E08093000160E086E00E941F28609174
:10257000050170910601809107019091080142E0E8
:102580000E941B160E949C158091160190911701C4
:10259000A0911801B0911901809312019093130139
:1025A000A0931401B093150105CC2091730222234E
:1025B00039F09B01AC010E946830362F272FFECCEA
:1025C00080917102882309F4F5CC20E030E040E0EE
:1025D00050ECC701B6010E94762FEFCF6C960FB674
:1025E000F894DEBF0FBECDBFDF91CF91FF91EF9189
:1025F000BF91AF919F918F917F916F915F914F911B
:102600003F912F911F910F91FF90EF90DF90CF900E
:10261000BF90AF909F908F907F906F905F904F9002
:102620000F900FBE0F901F9018950F931F930E944D
:1026300040290091360410913704209138043091DC
:102640003904601771078207930708F46DC0D90138
:10265000C8010A96A11DB11D8093360490933704DA
:10266000A0933804B09339040E94402900913204A9
:10267000109133042091340430913504601B710BA8
:10268000820B930B4AE00E94A01580E20E94E115A4
:102690000E94440B42E050E00E94EF1680E20E944C
:1026A000E1150E94380B42E050E00E94EF1680E2F4
:1026B0000E94E11580912204909123040E94F1165A
:1026C00080E20E94E11580912004909121040E94F3
:1026D000F11680E20E94E11580916F0290917002E4
:1026E0000E94F11680E20E94E11560912804709129
:1026F000290480912A0490912B0442E050E00E942A
:10270000EF1680E20E94E115609124047091250487
:10271000809126049091270442E050E00E94EF1639
:102720001F910F910C949C151F910F9108950F9379
:102730001F930E9440290091360410913704209184
:10274000380430913904601771078207930708F441
:102750009EC0D901C8010A96A11DB11D80933604FF
:1027600090933704A0933804B09339040E94402911
:1027700000913204109133042091340430913504D7
:10278000601B710B820B930B4AE00E94A01580E244
:102790000E94E1150E94440B42E050E00E94EF16B7
:1027A00080E20E94E1150E94380B42E050E00E9456
:1027B000EF1680E20E94E1158EE191E00E948D0803
:1027C00042E050E00E94EF1680E20E94E1158EE1A7
:1027D00091E00E94840842E050E00E94EF1680E2FF
:1027E0000E94E11580E091E00E948D0842E050E0F7
:1027F0000E94EF1680E20E94E11580E091E00E94C5
:10280000840842E050E00E94EF1680E20E94E11549
:102810002091400230914102409142025091430286
:10282000609138027091390280913A0290913B0296
:102830000E94683020E030E048E452E40E94762FA5
:1028400042E050E00E94EF1680E20E94E1152091E4
:102850004002309141024091420250914302609106
:1028600038027091390280913A0290913B020E94A5
:10287000673020E030E048E452E40E94762F42E0E6
:1028800050E00E94EF161F910F910C949C151F9120
:102890000F9108954F925F926F927F928F929F92C5
:1028A000AF92BF92CF92DF92EF92FF920F931F935E
:1028B000CF93DF9300D000D0CDB7DEB72B013C0122
:1028C0004701580180E091E029833A834B835C8380
:1028D0000E945309C12CD12C760129813A814B8168
:1028E0005C8189019A01B301A20180E091E00E941C
:1028F000960880910001833019F00E949713F9CF58
:102900000F900F900F900F90DF91CF911F910F912B
:10291000FF90EF90DF90CF90BF90AF909F908F90FF
:102920007F906F905F904F9008954F925F926F925B
:102930007F928F929F92AF92BF92CF92DF92EF924F
:10294000FF920F931F934B015C0129013A0167012C
:1029500078018FB7F89410923001109231011092E3
:102960003201109233018FBF8EE191E00E94840802
:1029700020E030E0A9010E94102F882339F062E0A6
:1029800070E080E090E00E940629EECF870176019A
:10299000A3019201C501B4010E944A141F910F9135
:1029A000FF90EF90DF90CF90BF90AF909F908F906F
:1029B0007F906F905F904F9008958FB7F89410922A
:1029C0004D0210924C0210924B0210924A02109249
:1029D0000202109203021092040210920502109259
:1029E000FE011092FF01109200021092010210925B
:1029F00018041092190410921A0410921B041092D9
:102A00001C0410921D0410921E0410921F041092B8
:102A100009021092080210920702109206028FBF5C
:102A200008950E94500810923A04109211040E94D6
:102A3000DD14109228021092290210922A0210929C
:102A40002B0210923402109235021092360210922C
:102A50003702109224021092250210922602109240
:102A6000270210923002109231021092320210921C
:102A700033028EE191E00E94530980E091E00C94D2
:102A80005309CF92DF92EF92FF920F931F93CF9350
:102A9000DF936C017A018B01C0E0D0E0CE15DF0539
:102AA00089F0D8016D918D01D601ED91FC910190D5
:102AB000F081E02DC6010995892B11F47E0102C039
:102AC0002196ECCFC701DF91CF911F910F91FF901D
:102AD000EF90DF90CF90089584E793E00E94022763
:102AE00021E0892B09F420E0822F08950E941B34F5
:102AF000E4E7F2E0ABE4B4E011921D9283E0E43746
:102B0000F807D1F740E051E06FEC77E08BE494E018
:102B10000C94CC2E009769F0FC0101900020E9F79D
:102B20003197AF01481B590BBC0184E793E00C942B
:102B3000411580E090E0089584ED91E00C948A15B1
:102B40008F929F92AF92BF920F931F93CF93DF9379
:102B5000CDB7DEB7A1970FB6F894DEBF0FBECDBFDD
:102B600019A2423008F44AE08E010F5D1F4F842EF7
:102B7000912CA12CB12CA50194010E94B232E62F18
:102B8000B901CA0101501109EA3014F4E05D01C035
:102B9000E95CD801EC93232B242B252B61F7C8018A
:102BA0000E948A15A1960FB6F894DEBF0FBECDBF66
:102BB000DF91CF911F910F91BF90AF909F908F9019
:102BC0000895E0917403F09175030190F081E02D78
:102BD000682F84E793E00994CF92DF92EF92FF92FF
:102BE000CF93DF936C01990FEE08FF08F7FE12C038
:102BF0008DE20E94E115EC0166277727CB016C1965
:102C00007D098E099F094AE00E94A0157C01EC0E07
:102C1000FD1E06C04AE0C701B6010E94A0157C0156
:102C20000E949C158E0D9F1DDF91CF91FF90EF901C
:102C3000DF90CF9008954F925F926F927F928F9224
:102C40009F92AF92BF92CF92DF92EF92FF926B0171
:102C50007C01B42E9B01AC010E944532882319F0FF
:102C600087ED91E027C026013701E89477F82FEF30
:102C70003FEF4FE75FE7C301B2010E944532811188
:102C80000DC02FEF3FEF4FE75FE7C301B2010E9496
:102C9000102F18161CF48BED91E00CC02FEF3FEFB6
:102CA0004FE75FE4C701B6010E94F231181684F4C1
:102CB0008FED91E0FF90EF90DF90CF90BF90AF90BD
:102CC0009F908F907F906F905F904F900C948A159B
:102CD0002FEF3FEF4FE75FECC701B6010E94102FC7
:102CE00087FDE6CF20E030E0A901C701B6010E94D0
:102CF000102F87FF09C08DE20E94E1154C01F7FA01
:102D0000F094F7F8F09402C0812C912CA12C60E093
:102D100070E080E09FE3AB1441F020E030E040E25F
:102D200051E40E94EF30A394F6CF9B01AC01C701A0
:102D3000B6010E9468302B013C010E9468316B0192
:102D40007C010E94152F9B01AC01C301B2010E94BE
:102D500067302B013C014AE0C701B6010E94A01573
:102D60007C01E80CF91CBB2029F08EE20E94E115E1
:102D7000E80EF91EDB2CDD2021F120E030E040E2FE
:102D800051E4C301B2010E94762F2B013C010E9445
:102D900068314B01A12CB12C4AE0C501B4010E945D
:102DA000A015E80EF91EC501B4010E94152F9B0164
:102DB000AC01C301B2010E9467302B013C01DA94DF
:102DC000DACFC701FF90EF90DF90CF90BF90AF9028
:102DD0009F908F907F906F905F904F9008950C948C
:102DE0001B16CF92DF92EF92FF92CF93DF936C018D
:102DF000990FEE08FF08F7FE17C08DE20E94E1155B
:102E0000EC0166277727CB016C197D098E099F0994
:102E10004AE00E94A0158C0F9D1FDF91CF91FF907B
:102E2000EF90DF90CF9008954AE0C701B601DF919F
:102E3000CF91FF90EF90DF90CF900C94A0150F935F
:102E40001F93CF93DF938C01C0E0D0E0F801EC0F2B
:102E5000FD1F6491662371F0E0917403F091750396
:102E60000190F081E02D84E793E00995892B11F022
:102E70002196ECCFCE01DF91CF911F910F91089554
:102E8000CF93DF930E941F17EC010E949C158C0FBB
:102E90009D1FDF91CF910895CF93DF930E948A15F4
:102EA000EC010E949C158C0F9D1FDF91CF9108951E
:102EB000809113040E9463078AE30E94E115E09168
:102EC0001204F0E0E755FE4F80810E94E1158091E9
:102ED0001404882311F08CE401C08DE20E94E115F6
:102EE00080911504882311F086E401C08DE20E94D0
:102EF000E11580911604882311F082E501C08DE26E
:102F00000E94E1150C949C15682F84E793E00C94C3
:102F10002F27CF93C82F80E20E94E1158C2F0E94AB
:102F2000E11588E20E94E115809113040E94630775
:102F3000E0911204F0E0E755FE4F80810E94E11518
:102F400089E20E94E1158BE50E94E1150E94480884
:102F500063E070E00E943D078DE50E94E11580E48A
:102F60000E94E1158EE191E00E948D080E9461317E
:102F7000DC01CB0164E070E00E943D0780E20E942A
:102F8000E11580917302882311F08CE401C08DE279
:102F90000E94E11580917202882311F086E401C03D
:102FA0008DE20E94E11580917102882311F082E583
:102FB00001C08DE20E94E11580E20E94E1158CE7DC
:102FC0000E94E11580E2CF910C94E1152FB7F8949F
:102FD000609323017093240180932501909326012F
:102FE0002FBF08958FB7F894EEE1F1E0128A138AAB
:102FF000148A158A8FBF8FB7F894428953896489E0
:103000007589418352836383748393E090838FBF78
:1030100008953F924F925F926F927F928F929F920C
:10302000AF92BF92CF92DF92EF92FF920F931F93D6
:10303000CF93DF9300D000D0CDB7DEB7309015042A
:103040001092110481E40E9489178EE191E00E94A0
:103050008D089B01AC018FB7F89480902801909067
:103060002901A0902A01B0902B018FBF8EE191E041
:1030700029833A834B835C830E9484082B013C01A3
:1030800029813A814B815C8160E070E087E893E4BC
:103090000E946730AB01BC01C12CD12C30EFE32E74
:1030A00031E4F32E930182018EE191E00E949608B3
:1030B0003320A1F10E944808843691053CF462E077
:1030C00070E080E090E00E940629F4CF0E94F217A1
:1030D000E12CF12C01E615E420E030E044EB53E470
:1030E00060E070E084E393EC0E949514812C90E8FA
:1030F000992E9BE3A92E95E4B92EC12CD12C28EC56
:10310000E22E23E4F22E9701860140E050E060EACF
:1031100072E48EE191E00E9496080BC080911E013E
:103120008330A1F262E070E080E090E00E94062926
:10313000F5CF80911E01833039F062E070E080E0CD
:1031400090E00E940629F5CF60E070E08AE293E407
:103150000F900F900F900F90DF91CF911F910F91D3
:10316000FF90EF90DF90CF90BF90AF909F908F90A7
:103170007F906F905F904F903F900C94E6174F9226
:103180005F926F927F928F929F92AF92BF92CF92F7
:10319000DF92EF92FF920F931F93CF93DF9300D0B4
:1031A00000D0CDB7DEB7109211048EE191E00E94FD
:1031B0008D089B01AC018EE191E029833A834B831A
:1031C0005C830E9484082B013C0129813A814B8158
:1031D0005C8160E070E08DE493E40E946730AB01B5
:1031E000BC01812C30E8932E3BE3A32E35E4B32EB3
:1031F000C12CD12CEAEFEE2EE3E4FE2E93018201E6
:103200008EE191E00E94960800E013E080911E019B
:10321000833081F062E070E080E090E00E94062957
:1032200080916F0290917002C79784F310931E01F2
:1032300001E0ECCF002311F082E501C082E70E949B
:103240008917812C912C2AE7A22E25E4B22EC12CBD
:10325000D12C760100E010E02CE833E440E050E0AF
:1032600064EB72EC80E091E00E949608809100018E
:10327000833039F062E070E080E090E00E9406293F
:10328000F5CF8EE191E00E9484088B019C01812C96
:1032900080E8982E8BE3A82E85E4B82EC12CD12C83
:1032A00098ECE92E93E4F92E40E050E060E271E4FE
:1032B0008EE191E00E94960880911E01833039F0E2
:1032C00062E070E080E090E00E940629F5CF60E0C7
:1032D00070E08AE293E40F900F900F900F90DF91CF
:1032E000CF911F910F91FF90EF90DF90CF90BF9003
:1032F000AF909F908F907F906F905F904F900C94C5
:10330000E6178EE191E00E948D0820E030E04AE26D
:1033100053E40E94102F87FF07C062E070E080E056
:1033200090E00E940629EDCF08954F925F926F9230
:103330007F928F929F92AF92BF92CF92DF92EF9245
:10334000FF920F931F93CF93DF9300D000D0CDB7A0
:10335000DEB7109211048EE191E00E948D089B016E
:10336000AC018EE191E029833A834B835C830E9418
:1033700084082B013C0129813A814B815C8160E00A
:1033800070E085E493E40E946730AB01BC01812CBE
:1033900030E8932E3BE3A32E35E4B32EC12CD12C81
:1033A000EAEFEE2EE3E4FE2E930182018EE191E03E
:1033B0000E94960800E013E080911E01833081F0A6
:1033C00062E070E080E090E00E94062980916F0248
:1033D00090917002C79784F310931E0101E0ECCF27
:1033E000002311F08CE401C08CE60E948917812C27
:1033F000912C2AE7A22E25E4B22EC12CD12C7601E5
:1034000000E010E02CE833E440E050E064EB72E4CC
:1034100080E091E00E94960880910001833039F0AD
:1034200062E070E080E090E00E940629F5CF8EE136
:1034300091E00E9484088B019C01812C80E8982EE9
:103440008BE3A82E85E4B82EC12CD12C98ECE92E64
:1034500093E4F92E40E050E060E271E48EE191E007
:103460000E94960880911E01833039F062E070E07E
:1034700080E090E00E940629F5CF60E070E08AE2EB
:1034800093E40F900F900F900F90DF91CF911F91C9
:103490000F91FF90EF90DF90CF90BF90AF909F90F3
:1034A0008F907F906F905F904F900C94E6173F92B3
:1034B0004F925F926F927F928F929F92AF92BF9244
:1034C000CF92DF92EF92FF920F931F93CF93DF93F0
:1034D00000D000D0CDB7DEB73090150410921104A3
:1034E00084E50E9489178EE191E00E948D089B017E
:1034F000AC018FB7F8948090280190902901A0909A
:103500002A01B0902B018FBF8EE191E029833A838D
:103510004B835C830E9484082B013C0129813A8102
:103520004B815C8160E070E087E893E40E94673043
:10353000AB01BC01C12CD12C90EFE92E91E4F92E06
:10354000930182018EE191E00E949608332009F4F4
:1035500047C00E944808823593403CF462E070E026
:1035600080E090E00E940629F4CF80E20E94E115FD
:103570000E9448080E94F11680E40E94E1158EE145
:1035800091E00E948D0842E050E00E94EF1680E238
:103590000E94E1150E94F217E12CF12C01E615E4DE
:1035A00020E030E044EB53E460E070E084E393EC2F
:1035B0000E9495140F900F900F900F90DF91CF9174
:1035C0001F910F91FF90EF90DF90CF90BF90AF9041
:1035D0009F908F907F906F905F904F903F90089555
:1035E00080911E01833009F262E070E080E090E09B
:1035F0000E940629F5CF80911204813001F130F04C
:103600008230A9F1833009F44AC064C08091150466
:10361000882329F060E0809113040E94870A80913A
:103620001604882329F061E0809113040E94870A20
:1036300080911404882309F44DC063E047C0809151
:103640001504882329F061E0809113040E94870A01
:1036500080911604882329F062E0809113040E946F
:10366000870A809114048823A9F160E02FC080911B
:103670001504882329F062E0809113040E94870AD0
:1036800080911604882329F063E0809113040E943E
:10369000870A809114048823E9F061E017C08091C3
:1036A0001504882329F063E0809113040E94870A9F
:1036B00080911604882329F060E0809113040E9411
:1036C000870A80911404882329F062E08091130412
:1036D0000E94870AE0911304F0E0E55BFB4F8081D4
:1036E000806F808308958F929F92AF92BF92CF9206
:1036F000DF92EF92FF920F931F93AB01BC0181E029
:1037000080933A04812C912C8AE7A82E84E4B82E69
:10371000C12CD12C760100E010E020EF32E48EE1E4
:1037200091E00E94960880911E01833039F062E09A
:1037300070E080E090E00E940629F5CF6CE271E035
:1037400080E090E01F910F91FF90EF90DF90CF907D
:10375000BF90AF909F908F900C9406298F929F926C
:10376000AF92BF92CF92DF92EF92FF92CF93DF930F
:10377000EC010E94111581E080933A0418820E94A6
:1037800040296B017C014B015C0180ED880E87E0D4
:10379000981EA11CB11C0E9431080E94650981116C
:1037A0002FC00E944029681579058A059B0540F5C0
:1037B0000E9440296C197D098E099F090E94152FCE
:1037C0002BED3FE049EC50E40E94762F20E030E002
:1037D0004AE754E40E94EF300E94F7310E94D4304F
:1037E0002DED35EA4EEF53E40E94762F2FB7F89473
:1037F00069837A838B839C832FBF0E949713CDCFDD
:103800000E949C15DF91CF91FF90EF90DF90CF90B9
:10381000BF90AF909F908F900C941115EF92FF92F4
:103820000F931F93CF93DF9300D000D0CDB7DEB7B7
:1038300069837A838B839C830E9431080E941115CF
:1038400021E020933A04E12CF12C07E815E420E074
:1038500030E044E354E469817A818B819C810E9449
:1038600095140F900F900F900F90DF91CF911F91B3
:103870000F91FF90EF900C9411154F925F926F9201
:103880007F928F929F92AF92BF92CF92DF92EF92F0
:10389000FF920F931F93CF93DF9300D000D0CDB74B
:1038A000DEB78631910508F0C8C4FC01EC5BFF4F20
:1038B0000C94D4328AE699E00F900F900F900F90FD
:1038C000DF91CF911F910F91FF90EF90DF90CF90FC
:1038D000BF90AF909F908F907F906F905F904F9030
:1038E0000C9440178FEC98E00E94401781E0809381
:1038F0003B040E9440296093320470933304809308
:1039000034049093350460933604709337048093A5
:103910003804909339040E946509811120C00E94E7
:1039200040290091360410913704209138043091D9
:103930003904601771078207930768F3D901C8013A
:103940008C599F4FAF4FBF4F8093360490933704ED
:10395000A0933804B09339040E947207DCCF0E9410
:103960009C150E946D0968EC70E080E090E00E9478
:10397000062910923B047FC40E9411158DEF98E038
:103980000E9440170E9440296093320470933304D0
:103990008093340490933504609336047093370415
:1039A00080933804909339040E946509811152C0B4
:1039B0000E94402900913604109137042091380468
:1039C000309139046017710782079307E0F1D9013C
:1039D000C8010A96A11DB11D809336049093370447
:1039E000A0933804B09339046091180470911904BD
:1039F00080911A0490911B044AE00E94A01580E275
:103A00000E94E11560911C0470911D0480911E04B8
:103A100090911F044AE00E94A01580E20E94E115E7
:103A20000E94440B0E946131CB010E94F11680E29A
:103A30000E94E1150E94380B0E946131CB010E9467
:103A4000F1160E949C1562E370E080E090E00E9415
:103A50000629AACF88E399E00E941F170E94380B1D
:103A600042E050E00E94EF1687E299E00E941F17A3
:103A70000E94440B42E050E00E94EF160E949C1509
:103A80008FE199E00E941F178EE191E00E948D085E
:103A900042E050E00E94EF1687E199E00E941F1774
:103AA00080E091E00E948D0842E050E00E94EF1615
:103AB0000F900F900F900F90DF91CF911F910F916A
:103AC000FF90EF90DF90CF90BF90AF909F908F903E
:103AD0007F906F905F904F900C949C1580E091E0E8
:103AE00002C08EE191E00F900F900F900F90DF9148
:103AF000CF911F910F91FF90EF90DF90CF90BF90EB
:103B0000AF909F908F907F906F905F904F900C94AC
:103B1000AE1B60E070E084EB92EC0F900F900F9082
:103B20000F90DF91CF911F910F91FF90EF90DF9059
:103B3000CF90BF90AF909F908F907F906F905F904D
:103B40004F900C940E1C0E94111511E010933A0432
:103B50000E94BA060E94310810933B04812C912CDC
:103B60005AEFA52E54E4B52EC12CD12C66E9E62ED1
:103B700063E4F62E00E010E028E434E440E050E096
:103B800064E373E48EE191E00E94960880911E0147
:103B9000833009F455C380917202811151C3F6CF6D
:103BA0000E94111581E080933A040E943108812C13
:103BB000912C4AEFA42E44E4B42EC12CD12C7601D2
:103BC00000E010E028E434E440E050E064E373E413
:103BD0008EE191E00E94960880911E01833019F0D9
:103BE0000E949713F9CFE12CF12C07E814E420E0B0
:103BF00030E044E354E460E070E084E393EC0E943E
:103C00004A140E94111581E080933A04812C912C72
:103C10003AEFA32E34E4B32EC12CD12C760100E070
:103C200010E028E434E440E050E064E373E48EE123
:103C300091E00E94960880911E01833009F405C32B
:103C40000E949713F8CF0E94111581E080933A04E7
:103C50000E943108812C90E8992E9BEBA92E94E4C8
:103C6000B92EC12CD12C760100E010E028E434E418
:103C700040E050E066E973E48EE191E00E9496082E
:103C800080911E01833019F00E949713F9CF812C87
:103C9000912C0AEFA02E04E4B02EC12CD12C86E981
:103CA000E82E83E4F82E9701860140E050E064EBB3
:103CB00072E480E091E00E949608809100018330D8
:103CC00019F00E949713F9CF0E94111581E080939B
:103CD0003A04812C912C1AE7A12E14E4B12EC12CA8
:103CE000D12C760100E010E028E434E440E050E01C
:103CF00066E973E48EE191E00E94960880911E01CE
:103D0000833009F4A2C20E949713F8CF0E941115C4
:103D100081E080933A040E943108812C912CA1EE1D
:103D2000AA2EA4E4BA2EC12CD12CB6E9EB2EB3E412
:103D3000FB2E00E010E028E434E4B701A6018EE198
:103D400091E00E94960880911E01833019F00E9434
:103D50009713F9CF0E9440296B017C0124E6C20E23
:103D6000D11CE11CF11C0E9440296C157D058E05BB
:103D70009F0518F40E949713F6CF8EE191E00E9400
:103D80008D089B01AC018FB7F8948090280190902A
:103D90002901A0902A01B0902B018FBF8EE191E004
:103DA00029833A834B835C830E9484082B013C0166
:103DB00029813A814B815C8160E070E088E494E481
:103DC0000E946730AB01BC01C12CD12C760193015C
:103DD00082018EE191E00E94960880911E0183305D
:103DE00009F433C20E949713F8CF11E010933B04FB
:103DF0000E9411150E94BA0610933A040E941A08F4
:103E0000812C912CFAEFAF2EF4E4BF2EC12CD12CD3
:103E1000760100E010E028E434E440E050E064EB98
:103E200073E48EE191E00E94960880911E01833038
:103E300019F00E941513F9CF1092110480E091E05F
:103E40000E945309812C912CEAEFAE2EE4E4BE2EA1
:103E5000C12CD12C760100E010E024E334E440E0F2
:103E600050E064E373E480E091E00E949608809162
:103E70000001833019F00E941513F9CF11E010935F
:103E80003B040E9411150E94BA0610933A04812C3B
:103E9000912C7AEFA72E74E4B72EC12CD12C760189
:103EA00000E010E028E434E440E050E064EB73E428
:103EB0008EE191E00E94960880911E01833019F0F6
:103EC0000E941513F9CF0E94111510923B04109215
:103ED0001104D1C181E080933B0480933A040E9495
:103EE000BA060E941A080E946509811103C00E9447
:103EF0001513F9CF0E946D0982C10E9411150E940D
:103F0000BA0681E080933B0460E070E080EA91ECC7
:103F10000E94731B0E94111560E070E084E393EC33
:103F20000E940E1C60E070E080EA91E40F900F9018
:103F30000F900F90DF91CF911F910F91FF90EF9015
:103F4000DF90CF90BF90AF909F908F907F906F90B9
:103F50005F904F900C94731B11E010933B0464E648
:103F600070E080E090E00E9406290E9411151093F5
:103F70003A04109211048AE599E00E944017812CBE
:103F8000912C6AE7A62E64E4B62EC12CD12C7601C2
:103F900000E010E028EC32E440E050E066E173E439
:103FA0008EE191E00E94960800E010E0812C912CB7
:103FB000E12CF12CC12CD12CB12CA12C80911E0113
:103FC000833009F457C0809122049091230488160D
:103FD000990624F480902204909023048091200478
:103FE000909121040817190724F4009120041091DE
:103FF0002104A1101BC02091220430912304C4018C
:1040000097FC019695958795281739077CF48EE1E2
:1040100091E00E948D0820E030E040E05FE30E94E4
:1040200068300E9461316B01AA24A394B1101BC0B7
:104030002091200430912104C80117FD0196959527
:104040008795281739077CF48EE191E00E948D084E
:1040500020E030E040E05FE30E9468300E94613180
:104060007B01BB24B39465E070E080E090E00E94A7
:104070000629A4CF83E599E00E941F17AA2029F002
:10408000C6014E960E94F11603C08DE20E94E11512
:1040900089E499E00E941F17BB2029F0C7014E96C2
:1040A0000E94F11603C08DE20E94E1150E949C154A
:1040B000A6C011E010933B0464E670E080E090E05D
:1040C0000E9406290E94111510933A0410921104BF
:1040D0000E941A08812C912C81EEA82E84E4B82E1F
:1040E000C12CD12C760100E010E024E333E440E061
:1040F00050E064EB73E480E091E00E9496088091C8
:104100000001833009F47BC00E94402900913604ED
:1041100010913704209138043091390460177107E9
:104120008207930760F3D901C8010A96A11DB11D4A
:104130008093360490933704A0933804B0933904E5
:104140000E944029009132041091330420913404DC
:1041500030913504601B710B820B930B4AE00E9477
:10416000A01580E20E94E1150E94440B42E050E05D
:104170000E94EF1680E20E94E1150E94380B42E097
:1041800050E00E94EF1680E20E94E1158091300419
:10419000909131040E94F11680E20E94E115809115
:1041A0002E0490912F040E94F11680E20E94E115E6
:1041B00080912C0490912D040E94F11680E20E94BF
:1041C000E115609128047091290480912A0490914E
:1041D0002B0442E050E00E94EF1680E20E94E115BD
:1041E0006091240470912504809126049091270405
:1041F00042E050E00E94EF160E949C1580CF0E9482
:10420000111510923B0464E670E080E090E00F909E
:104210000F900F900F90DF91CF911F910F91FF9012
:10422000EF90DF90CF90BF90AF909F908F907F9056
:104230006F905F904F900C94062910923B0405C03C
:104240008091720290E00E94EC150F900F900F90F9
:104250000F90DF91CF911F910F91FF90EF90DF9022
:10426000CF90BF90AF909F908F907F906F905F9016
:104270004F900C9411150F900F900F900F90DF91AD
:10428000CF911F910F91FF90EF90DF90CF90BF9053
:10429000AF909F908F907F906F905F904F90089518
:1042A0008F929F92AF92BF92CF92DF92EF92FF9246
:1042B0000F931F93CF93DF938031910508F02EC3A6
:1042C000FC01E65AFF4F0C94D43285E899E0DF9167
:1042D000CF911F910F91FF90EF90DF90CF90BF9003
:1042E000AF909F908F900C944017DF91CF911F91CA
:1042F0000F91FF90EF90DF90CF90BF90AF909F9085
:104300008F900C9458170E94111581E080933A0405
:1043100080933B0410921104812CD0E89D2EDBE3A6
:10432000AD2ED5E4BD2EC12CD12C1AEFE12E13E415
:10433000F12E9701860140E050E067E073E48EE1E2
:1043400091E00E94960880911E01833039F062E06E
:1043500070E080E090E00E940629F5CF82E50E949F
:10436000E1158EE191E00E948D080E946131DC012F
:10437000CB0164E070E00E943D0780E20E94E115FD
:104380000E94480863E070E00E943D070E949C156F
:10439000812C912CCAE7AC2EC5E4BC2EC12CD12CAB
:1043A000760100E010E02CE833E440E050E064EBFC
:1043B00072EC80E091E00E949608809100018330C9
:1043C00039F062E070E080E090E00E940629F5CFCD
:1043D000812CB0E89B2EBBE3AB2EB5E4BB2EC12CE9
:1043E000D12C760100E010E02AEF33E440E050E009
:1043F0006CED72E48EE191E00E94960880911E01BE
:10440000833009F48DC262E070E080E090E00E94A9
:104410000629F4CF0E94111581E080933A0480931D
:104420003B0410921104812CF0E89F2EFBE3AF2E89
:10443000F5E4BF2EC12CD12CAAEFEA2EA3E4FA2E6C
:104440009701860140E050E067E073E48EE191E07F
:104450000E94960880911E01833039F062E070E07E
:1044600080E090E00E940629F5CF8CE40E94E115DF
:104470008EE191E00E948D080E946131DC01CB0148
:1044800064E070E00E943D0780E20E94E1150E9416
:10449000480863E070E00E943D070E949C15812C53
:1044A000912CEAE7AE2EE5E4BE2EC12CD12C76018C
:1044B00000E010E02CE833E440E050E064EB72E40C
:1044C00080E091E00E94960880910001833039F0ED
:1044D00062E070E080E090E00E940629F5CF812C38
:1044E00070E8972E7BE3A72E75E4B72EC12CD12C54
:1044F000760100E010E02AEF33E440E050E06CED9C
:1045000072E48EE191E00E94960880911E01833052
:1045100009F406C262E070E080E090E00E940629A3
:10452000F4CF0E94111581E080933A04812C912CE4
:104530006AE7A62E64E4B62EC12CD12C760100E0E9
:1045400010E028EC33E440E050E06AEF73E48EE1E1
:1045500091E00E94960880911E01833069F162E02B
:1045600070E080E090E00E940629F5CF0E941115CE
:1045700081E080933A04812C50E8952E5BE3A52ED0
:1045800055E4B52EC12CD12C760100E010E028ECCA
:1045900033E440E050E06CED72E48EE191E00E9483
:1045A000960880911E01833039F062E070E080E06F
:1045B00090E00E940629F5CF80E40E94E1158EE18B
:1045C00091E00E948D080E946131DC01CB0164E022
:1045D00070E00E943D0780E20E94E115DF91CF91DB
:1045E0001F910F91FF90EF90DF90CF90BF90AF9011
:1045F0009F908F900C949C150E94111581E08093E0
:104600003A040E943108812C912C3AE7A32E34E41D
:10461000B32EC12CD12C40EFE42E41E4F42E00E067
:1046200010E024E333E4B901A8018EE191E00E9497
:10463000960880911E01833019F00E949713F9CFDC
:104640000E94F2170E949C150E9440296B017C0178
:1046500028ECC20ED11CE11CF11C0E9440296C15F3
:104660007D058E059F0508F05BC10E949713F5CF6D
:1046700060E070E084EB93E409C060E070E084EBFC
:1046800092E404C060E070E084EB92ECDF91CF91A3
:104690001F910F91FF90EF90DF90CF90BF90AF9060
:1046A0009F908F900C940E1C0E94111581E08093B6
:1046B0003A04812C912C2AEFA22E23E4B22EC12C95
:1046C000D12C760100E010E028EC32E440E050E02C
:1046D00060EF71E48EE191E00E9496080E9450081C
:1046E00010923A042BC183EE91E00E944C17109275
:1046F0001704109213041092120487E70E94AB244F
:104700001092170480E00E94AB2487E70E94AB243C
:1047100080E00E94AB2487E70E94AB2480E00E94E7
:10472000AB24FEC08DEE91E00E944C17C1E0C09317
:10473000170410921304109212040E94781587E750
:104740000E94E30968EE73E080E090E00E94062991
:10475000C0933B040E941115C0933A04812C80E859
:10476000982E8BE3A82E85E4B82EC12CD12C98EC82
:10477000E92E93E4F92E9701860140E050E060EFC6
:1047800071E48EE191E00E94960880911E018330D1
:1047900039F062E070E080E090E00E940629F5CFF9
:1047A00060E070E084EB92E40E94E61788E799E00D
:1047B0000E9440170E94811980911304873721F0CD
:1047C0000E946509882351F00E949C158DE699E0AE
:1047D0000E944017C4E0D0E011E089C00E949C15FF
:1047E0008DE20E9489170E94BA066091120480919E
:1047F00013040E94D1098093130480917102809365
:104800001604809173028093140480917202809345
:1048100015040E94FB1A87E70E94E309C091120465
:104820006C2F809113040E9479098C1B682F637090
:1048300070E080E090E04AE00E94A01580E290E005
:104840000E9484178CE790E00E94841780E290E039
:104850000E9484178EE20E94891780911304873783
:1048600019F40E94571AA8CF80911404811106C030
:104870000E949519809112048D5F32C080911504B9
:1048800081111FC0CFB7F89460912301709124016A
:10489000809125019091260120E030E044E353E42B
:1048A0000E94673060932301709324018093250157
:1048B00090932601CFBF86E40E9489170E94811938
:1048C00012C080911604811106C00E94BF18809109
:1048D00012048F5F05C00E940918809112048E5F38
:1048E00083708093120488E70E94891765CF109225
:1048F0003B046AEF70E080E090E00E94062910938C
:104900003B046AEF70E080E090E00E940629219766
:1049100071F710923B040E94581702C010923B049A
:10492000DF91CF911F910F91FF90EF90DF90CF908B
:10493000BF90AF909F908F900C941115DF91CF9105
:104940001F910F91FF90EF90DF90CF90BF90AF90AD
:104950009F908F9008958F929F92AF92BF92CF9227
:10496000DF92EF92FF920F931F93CF93DF93D82F95
:104970000E94E30968EE73E080E090E00E9406295F
:10498000C1E0C0933B040E941115C0933A0480918A
:104990001704882329F084E09AE00E94401770C031
:1049A000812C912C8AE7A82E84E4B82EC12CD12C1E
:1049B000760100E010E020EF32E440E050E060E7F4
:1049C00072EC8EE191E00E94960880911E01833086
:1049D00011F362E070E080E090E00E940629F5CFDC
:1049E0000E946509811150C00E949C158DE20E94B1
:1049F00089170E94BA0660911204809113040E94E4
:104A0000D1098093130480917102809316048091E0
:104A100073028093140480917202809315040E94A3
:104A2000FB1A8D2F0E94E309C09112046C2F809114
:104A300013040E9479098C1BC82FC3706C2F70E07F
:104A400080E090E04AE00E94A01580E290E00E94A1
:104A500084178CE790E00E94841780E290E00E9427
:104A600084178EE20E948917809113048D1310C061
:104A70000E94571A809112048E5F837080931204F3
:104A8000809113048D13ACCFC4E0D0E011E040C09E
:104A9000C23061F1C33081F1C130F9F0CFB7F89481
:104AA000609123017091240180912501909126014C
:104AB00020E030E044E353E40E9467306093230138
:104AC000709324018093250190932601CFBF86E443
:104AD0000E9489170E94811917C00E94BF188091F7
:104AE00012048F5F8370809312040EC00E94091815
:104AF000909112049E5F05C00E9495199091120436
:104B00009D5F93709093120488E70E948917B8CF35
:104B100010923B046AEF70E080E090E00E9406296A
:104B200010933B046AEF70E080E090E00E94062959
:104B3000219771F710923B040E9458170E9411159B
:104B400080E090E0DF91CF911F910F91FF90EF9067
:104B5000DF90CF90BF90AF909F908F9008958F92ED
:104B60009F92AF92BF92FF920F931F93CF93DF93C9
:104B7000EB01FC0110819C011D3221F02F5F3F4FA2
:104B800000E005C02E5F3F4FFC01118101E0F22ED5
:104B9000F90120E030E0A9018E2F8F1990ED910FDF
:104BA0009A30B8F4883098F4AAE0B0E00E944D3012
:104BB000212F110F330B205331094901330FAA085C
:104BC000BB089B01AC01280D391D4A1D5B1D1191CD
:104BD000E3CF882339F0002319F03195219531096D
:104BE00039832883DF91CF911F910F91FF90BF9060
:104BF000AF909F908F900895CF93DF930E94E1151F
:104C0000EC010E949C158C0F9D1FDF91CF910895A0
:104C10001F93CF93DF9310E0C0E1D0E08FE60E94B6
:104C2000E115E12FF0E0E55BFB4F808182FF03C0DF
:104C300080EC91E002C08BEC91E00E948A152197F4
:104C4000105F209759F78FE6DF91CF911F910C9459
:104C5000FC25FC01EE0FFF1FE652F64FA591B49123
:104C6000FC01EB53F64F84918230E1F038F4882355
:104C700089F0813001F58D919C911BC0833069F0E2
:104C80008430C9F46D917D918D919C9145E050E007
:104C90000C94EF168C9190E00CC06D917D918D91EC
:104CA0009C9104C06D917C9180E090E04AE00C946E
:104CB000A0150C94F11687EB99E00C944017CF9354
:104CC000DF93853191057CF4EC0184E20E94E115CB
:104CD000CE010E94F1168DE30E94E115CE01DF9115
:104CE000CF910C942926DF91CF910895CF92DF9236
:104CF000EF92FF920F931F93CF93DF93CDB7DEB761
:104D0000EE970FB6F894DEBF0FBECDBF87EA99E0ED
:104D10000E944017CE0101967C0100E010E06C017A
:104D2000C8010E943730F70181937F010F5F1F4F49
:104D30000E331105A9F789819A818B369105B9F453
:104D40008EE3F601ACE3B1E001900D928A95E1F7B4
:104D5000EE960FB6F894DEBF0FBECDBFDF91CF91B8
:104D60001F910F91FF90EF90DF90CF90089588E80A
:104D700099E00E9440170E94F305EE960FB6F89452
:104D8000DEBF0FBECDBFDF91CF911F910F91FF907E
:104D9000EF90DF90CF900C94C605089580E090E0EE
:104DA0000895FC01538D448D252F30E0842F90E031
:104DB000821B930B541710F0CF9608950197089516
:104DC000FC01918D828D981761F0828DDF01A80F13
:104DD000B11D5D968C91928D9F5F9F73928F90E035
:104DE00008958FEF9FEF0895FC01918D828D9817A4
:104DF00031F0828DE80FF11D858D90E008958FEFE1
:104E00009FEF0895FC01918D228D892F90E0805CA9
:104E10009F4F821B91098F7399270895FC01848D00
:104E2000DF01A80FB11DA35ABF4F2C91848D90E0D4
:104E300001968F739927848FA689B7892C93A089AF
:104E4000B1898C9180648C93938D848D981306C066
:104E50000288F389E02D80818F7D80830895EF9211
:104E6000FF920F931F93CF93DF93EC0181E0888F24
:104E70009B8D8C8D981305C0E889F989808185FD0B
:104E800024C0F62E0B8D10E00F5F1F4F0F731127FC
:104E9000E02E8C8DE8120CC00FB607FCFACFE88923
:104EA000F989808185FFF5CFCE010E940E27F1CFD1
:104EB0008B8DFE01E80FF11DE35AFF4FF0820B8F3F
:104EC000EA89FB898081806207C0EE89FF8960835F
:104ED000E889F98980818064808381E090E0DF91B6
:104EE000CF911F910F91FF90EF900895CF93DF9393
:104EF000EC01888D8823C9F0EA89FB89808185FDD2
:104F000005C0A889B9898C9186FD0FC00FB607FC32
:104F1000F5CF808185FFF2CFA889B9898C9185FF73
:104F2000EDCFCE010E940E27E7CFDF91CF910895FC
:104F300080E090E0892B29F00E946C1581110C947F
:104F4000000008953FB7F894809141049091420485
:104F5000A0914304B091440426B5A89B05C02F3FFF
:104F600019F00196A11DB11D3FBFBA2FA92F982F8F
:104F70008827820F911DA11DB11DBC01CD0142E00A
:104F8000660F771F881F991F4A95D1F708951F92C2
:104F90000F920FB60F9211242F933F934F935F936D
:104FA0006F937F938F939F93AF93BF93EF93FF93F1
:104FB00084E793E00E940E27FF91EF91BF91AF919C
:104FC0009F918F917F916F915F914F913F912F9121
:104FD0000F900FBE0F901F9018951F920F920FB653
:104FE0000F9211242F938F939F93EF93FF93E09150
:104FF0008403F09185038081E0918A03F0918B0313
:1050000082FD12C0908180918D038F5F8F732091FC
:105010008E03821751F0E0918D03F0E0EC58FC4FC5
:10502000958F80938D0301C08081FF91EF919F91B7
:105030008F912F910F900FBE0F901F90189590E0B9
:10504000FC01E35BF54F3491FC01E75CF54F2491E3
:10505000FC01EB5DF54FE491EE2309F43BC03323F3
:1050600039F1333091F038F43130A9F0323001F5B4
:1050700084B58F7D12C0373091F03830A1F03430D4
:10508000B9F4809180008F7D03C0809180008F777C
:10509000809380000DC084B58F7784BD09C0809156
:1050A000B0008F7703C08091B0008F7D8093B000F7
:1050B000F0E0EE0FFF1FE55EF54FA591B4918FB7BD
:1050C000F894EC91611103C020952E2301C02E2B82
:1050D0002C938FBF0895CF93DF9390E0FC01E75CA2
:1050E000F54F2491FC01EB5DF54F8491882361F12C
:1050F00090E0880F991FFC01EF5EF54FC591D491A8
:10510000FC01E55EF54FA591B491611109C09FB70F
:10511000F8948881209582238883EC912E230BC0FC
:10512000623061F49FB7F8943881822F8095832391
:105130008883EC912E2B2C939FBF06C08FB7F894D9
:10514000E8812E2B28838FBFDF91CF9108951F9385
:10515000CF93DF93182FEB0161E00E946B2820971B
:1051600011F460E004C0CF3FD10539F461E0812F34
:10517000DF91CF911F910C941F28E12FF0E0E35BAA
:10518000F54FE491E330F9F048F4E130B9F0E23062
:10519000A1F584B5806284BDC8BD34C0E730E9F0B4
:1051A000E83019F1E43049F5809180008062809305
:1051B0008000D0938B00C0938A0024C084B580689F
:1051C00084BDC7BD1FC0809180008068809380002F
:1051D000D0938900C093880015C08091B00080688A
:1051E0008093B000C093B3000DC08091B000806286
:1051F0008093B000C093B40005C0C038D1050CF056
:10520000B5CFAFCFDF91CF911F9108958F929F922D
:10521000AF92BF92CF92DF92EF92FF926B017C012F
:105220000E94A2274B015C01C114D104E104F104E6
:10523000F1F00E94A227DC01CB0188199909AA0983
:10524000BB09883E9340A105B10570F321E0C21A65
:10525000D108E108F10888EE880E83E0981EA11CB1
:10526000B11CC114D104E104F10419F7DDCFFF90A2
:10527000EF90DF90CF90BF90AF909F908F90089568
:105280002FB7F89460913D0470913E0480913F04E3
:10529000909140042FBF08951F920F920FB60F9266
:1052A00011242F933F938F939F93AF93BF9380913C
:1052B0003D0490913E04A0913F04B0914004309190
:1052C0003C0423E0230F2D3720F40196A11DB11DCE
:1052D00005C026E8230F0296A11DB11D20933C04B2
:1052E00080933D0490933E04A0933F04B093400408
:1052F0008091410490914204A0914304B0914404F0
:105300000196A11DB11D8093410490934204A09386
:105310004304B0934404BF91AF919F918F913F910B
:105320002F910F900FBE0F901F901895CF93DF9382
:10533000CDB7DEB7C254D1090FB6F894DEBF0FBEA9
:10534000CDBF789484B5826084BD84B5816084BD0E
:1053500085B5826085BD85B5816085BD80916E0013
:10536000816080936E001092810080918100826044
:105370008093810080918100816080938100809181
:1053800080008160809380008091B1008460809370
:10539000B1008091B00081608093B00080917A006C
:1053A000846080937A0080917A00826080937A0092
:1053B00080917A00816080937A0080917A00806881
:1053C00080937A001092C100E0918403F0918503EC
:1053D00082E08083E0918003F09181031082E0916C
:1053E0008203F091830380E1808310928C03E0912B
:1053F0008803F091890386E08083E0918603F09131
:105400008703808180618083E0918603F091870328
:10541000808188608083E0918603F091870380819A
:1054200080688083E0918603F091870380818F7D7F
:1054300080830E9476260E94F3058091B0008E7FC3
:105440008093B0008091B00082608093B000809122
:10545000B100877F8093B1008091B1008460809318
:10546000B1008091B1008D7F8093B1008091B10037
:1054700081608093B10089EF8093B30080917000C8
:1054800082608093700061E086E00E946B2860E09B
:1054900086E00E941F2861E08BE00E946B2861E09B
:1054A0008CE00E946B2861E08BE00E946B2861E039
:1054B0008DE00E946B2861E086E00E946B2860E02E
:1054C0008BE00E941F2860E08DE00E941F2860E0B2
:1054D00086E00E941F2868EE73E080E090E00E9462
:1054E000062961E08BE00E941F2861E08DE00E94A8
:1054F0001F2861E086E00E941F2861E08DE00E9485
:105500006B2881E080933B0461E087E00E946B2878
:1055100061E088E00E946B2861E089E00E946B28CE
:1055200061E08AE00E946B2829985F982A98289861
:10553000809181008D7F80938100809181008160C6
:10554000809381000E9450081FB7F89460E082E0C9
:105550000E946B2860E084E00E946B2880916900C3
:105560008D7F8093690080916900816080936900DC
:10557000E89A10924D0210924C0260E083E00E9483
:105580006B2860E085E00E946B2880916900877F2E
:105590008093690080916900846080936900E99A32
:1055A00010924B0210924A021FBF0E94DD1480919C
:1055B0007A00846080937A0080917A008D7F809356
:1055C0007A0080917A00816080937A0066E970E0C9
:1055D00080E090E00E9406290E949C1510923B04F6
:1055E0000E946509882341F00E9478158AEF92E0B5
:1055F0000E9440170E946D0986EF92E00E944017BA
:10560000CE0101967C01CC24CA94DC2C84E793E083
:105610000E940227892B09F4B5C284E793E00E9417
:105620000227892B09F4AEC284E793E00E94E026AA
:105630008A3081F40E949C1582E2D7011D928A95DE
:10564000E9F780914F028432F1F1A12CB12C8FE463
:1056500092E042C08830B1F480914E028823E9F292
:10566000E82FF0E0E15BFD4F1082815080934E0205
:1056700088E00E94E11580E20E94E11588E00E9426
:10568000E115CBCF082F880F110BC8010E942234DF
:10569000892B19F2C8010E942934182F0E94E115A4
:1056A000E0914E02EF3108F0B8CF91E09E0F909359
:1056B0004E02F0E0E15BFD4F1083E92FF0E0E15B8B
:1056C000FD4F1082AACF84EC91E09A838983AA24AB
:1056D000A394B12C80E592E066EC71E00E94E42E88
:1056E0004501880C991C00E010E00097B9F0F80122
:1056F000E80DF91DEE0DFF1D91838083BFEFAB1AFE
:10570000BB0A0E5F1F4FE0E1AE16B10439F066EC44
:1057100071E080E090E00E94E42EE7CFE981FA8119
:10572000DF010D900020E9F7CD0102978E179F074A
:1057300021F0470100E010E00AC28081833509F4BE
:10574000CAC14CF48F33C9F0823509F484C1843264
:1057500009F00BC2B7C0853509F4E2C10CF4C9C128
:10576000873509F44CC1883509F0FFC184EC97E016
:105770000E9440170E947815F8C182E697E00E94C7
:10578000401789E497E00E94401788E397E00E9461
:10579000401785E197E00E9440178AEF96E00E944B
:1057A000401789EE96E00E9440178AED96E00E942D
:1057B000401785EB96E00E94401780E996E00E9432
:1057C00040178DE696E00E94401787E496E00E941D
:1057D000401789E296E00E9440178DEF95E00E9405
:1057E000401782ED95E00E94401789EB95E00E94FA
:1057F000401781EA95E00E94401784E895E00E94F6
:1058000040178AE695E00E9440178EE495E00E94DA
:1058100040178DE295E00E9440178FE095E00E94CE
:10582000401780E095E00E94401781EE94E00E94CE
:1058300040178EEB94E00E94401784EA94E00E94A7
:10584000401785E994E00E94401788E794E00E94A1
:1058500040178EE594E00E94401780E594E00E9496
:10586000401789E394E00E94401782E294E00E948E
:10587000401784E194E00E94401786EF93E00E9475
:10588000401785ED93E00E9440178BEB93E00E9458
:1058900040178DE993E00E94401780E893E00E9452
:1058A000401782E693E00E94401781E493E00E9453
:1058B000401786E293E00E9440178CE093E00E943C
:1058C000401753C1F1E0AF16B104C1F40E949C151A
:1058D00000E010E084E20E94E115C8010E94F11688
:1058E0008DE30E94E115C8010E9429260E949C15A3
:1058F0000F5F1F4F0531110569F737C1EB81FC813F
:10590000DF010D900020E9F7CD0102978E179F0768
:1059100009F066C09081933209F45FC034F491328B
:1059200009F05EC00E94C60520C1943231F0903467
:1059300009F056C00E94762618C161E7A62E67E0DE
:10594000B62E00E010E0F801EB53F64FE491E230A0
:1059500081F028F4E11110C081EB97E00FC0E33033
:1059600029F0E43049F486EB97E008C088EA97E034
:1059700005C08FE997E002C08BE997E00E941F17EE
:1059800080E20E94E115F501659174914FE150E0CC
:10599000CE0183960E94D52ECE0183960E948A1551
:1059A00080E20E94E1158DE30E94E11580E20E94F1
:1059B000E115C8010E9429268CEB97E00E941F1771
:1059C000C8010E94EC150F5F1F4F22E0A20EB11C10
:1059D0000531110509F0B7CFC8C00E94F305C5C055
:1059E000DCA2CBA2BE016D5D7F4FCF010E94AF252F
:1059F0000BA11CA10531110508F0B7C0DCC00E9445
:105A00009C150FE010E0C8010E941C07902E50E189
:105A1000A52EB12CE92DF0E0E55BFB4F808183FDE5
:105A200003C08AEC91E002C08FEC91E00E948A15DD
:105A3000F1E0AF1AB10820E1920EA114B10451F7C0
:105A40008CE70E94FC2501501109E8F60E94082607
:105A50000E949C158AC00E949C1587E70E94E3095A
:105A60000FE010E0C8010E941C07802E40E1A42E28
:105A7000B12CE82DF0E0E55BFB4F808183FF02C095
:105A80008CE701C080E20E94E11560E0882D0E9451
:105A90007909982E97E7891202C034E0932E80E2AC
:105AA0000E94E115E92DF0E0ED55FE4F80810E9446
:105AB000E11580E20E94E115A1E0AA1AB108B0E167
:105AC0008B0EA114B104A9F68CE70E94FC250150AD
:105AD000110940F6BBCF81E080933B046AE070E09F
